:100000000C9472000C9493000C9493000C94930045
:100010000C9493000C9493000C9493000C94930014
:100020000C9493000C9493000C9493000C94930004
:100030000C9493000C9493000C9493000C949300F4
:100040000C9493000C9493000C9493000C949300E4
:100050000C9493000C9493000C9493000C949300D4
:100060000C9493000C9493000C9493000C949300C4
:100070000C9493000C9493000C9493000C949300B4
:100080000C9493000C9493000C9493000C949300A4
:100090000C9493000C9493000C9493000C94930094
:1000A0000C9493000C9493000C9493000C94930084
:1000B0000C9493000C9493000C9493000C94930074
:1000C0000C9493000C9493000C9493000C94930064
:1000D0000C9493000C9493000C9493000C94930054
:1000E0000C94930011241FBECFEFD1E2DEBFCDBF31
:1000F00000E00CBF12E0A0E0B2E0ECEEF7E000E0C0
:100100000BBF02C007900D92A231B107D9F722E0D0
:10011000A2E1B2E001C01D92A531B207E1F70E9451
:100120000D010C94F4030C94000088E084B980E481
:100130008CBD08958EBD0DB407FEFDCF8EB508951C
:10014000CF93DF93EC018991811103C0DF91CF91AF
:1001500008950E949A00F7CF0F931F93CF93DF93D8
:10016000CDB7DEB7C456D1090FB6F894DEBF0FBEC7
:10017000CDBF9F938F9380E092E09F938F938E01EA
:100180000F5F1F4F1F930F930E942D01C8010E9404
:10019000A0008EB50F900F900F900F900F900F90C2
:1001A000CC59DF4F0FB6F894DEBF0FBECDBFDF9145
:1001B000CF911F910F910895EAE7F0E0808186606A
:1001C0008083ACE7B0E08C9180648C938081806800
:1001D0008083089590917C00907E90937C00909114
:1001E0007C00892B80937C0080917A0080648093CE
:1001F0007A0080917A0084FFFCCF80917A00806140
:1002000080937A0080917800809312029091790017
:10021000909314028093130208950E9495000E9407
:10022000DC008FEF81B983E092E00E94A00080E0C3
:100230000E94EA000E94AC0087E092E00E94A000C9
:100240008DE092E00E94A00081E00E94EA000E94FE
:10025000AC0080E00E949A00E6CF0F931F93CF93EB
:10026000DF93CDB7DEB72E970FB6F894DEBF0FBE83
:10027000CDBF0E891F8986E08C831A8309838FEF97
:100280009FE79E838D83AE01465E5F4F688D798DBB
:10029000CE0101960E945D012F813885020F131F48
:1002A000F80110822E960FB6F894DEBF0FBECDBFB8
:1002B000DF91CF911F910F9108952F923F924F920E
:1002C0005F926F927F928F929F92AF92BF92CF92E6
:1002D000DF92EF92FF920F931F93CF93DF9300D0A3
:1002E00000D000D00F920F92CDB7DEB77C013B015A
:1002F0008A01FC0117821682838181FFCEC19AE0B8
:10030000292ECE0101965C01F7019381F30193FD43
:10031000859193FF81913F01882309F446C185327D
:1003200039F493FD859193FF81913F01853229F442
:10033000B70190E00E946603E7CF912C412C512C2D
:10034000FFE1F51538F08B3209F188F4803201F1C4
:10035000833221F157FC3AC020ED280F2A3040F5B6
:1003600056FE1FC0929C200D1124922E06C08D3285
:1003700091F0803379F7689450F8F30193FD8591FB
:1003800093FF81913F018111DBCF20C0689451F828
:10039000689452F8F2CF689453F8EFCF689454F809
:1003A000ECCF429C200D1124422E689455F8E5CFE5
:1003B0008E3229F456FCF9C0689456F8DECF8C369C
:1003C00019F4689457F8D9CF8836B9F2982F9F7DE1
:1003D00095549330C0F08336A1F18337C1F1833552
:1003E00009F05BC0F801C190D1908F01692D70E0D8
:1003F00056FC02C06FEF7FEFC6010E9450034C0114
:10040000689457F80AC00C5F1F4F2FE32983882494
:100410008394912C6501E89457F853FC04C0481468
:10042000190409F018F5342C8114910431F53320A6
:1004300009F46ACFB70180E290E00E9466033A9423
:10044000F6CFF801808189830E5F1F4FE0CFF8015E
:10045000C190D1908F01692D70E056FC02C06FEF02
:100460007FEFC6010E945B034C01D5CFB70180E24C
:1004700090E00E9466034A94D2CFF60157FC859122
:1004800057FE81916F01B70190E00E946603311021
:100490003A94F1E08F1A9108C7CF843619F0893663
:1004A00009F074C0F80157FE6AC0619171918191A1
:1004B00091918F01252D2F76D22E97FF09C090950F
:1004C0008095709561957F4F8F4F9F4F6894D7F8B7
:1004D0002AE030E0A5010E949603C82ECA188C2C91
:1004E0005D2CD6FE0CC0E89450F8C91440F4D4FE3C
:1004F00005C0D2FC03C0FD2DFE7E5F2E892C54FE6C
:10050000A4C0FE01EC0DF11D8081803309F096C07E
:10051000252D297E522E852D8870382E53FCA4C09F
:1005200050FE9EC09C2C841418F44C0C942C9818EB
:1005300054FEA0C0B70180E390E00E94660352FE23
:1005400009C088E790E051FE02C088E590E0B7015D
:100550000E946603C91408F499C0CA94D12C9FEF75
:10056000C91AD90ACA0CDB1CF60182916F01B701C6
:1005700090E00E946603AC14BD04B1F758CF6191BE
:100580007191072E000C880B990B93CFD52CE89412
:10059000D4F82AE030E08537E1F1952D997FD92E06
:1005A0008F36A9F1F0F4883551F1F70186819781F2
:1005B0002B960FB6F894DEBF0FBECDBFDF91CF9163
:1005C0001F910F91FF90EF90DF90CF90BF90AF9071
:1005D0009F908F907F906F905F904F903F902F9063
:1005E0000895803749F0883701F7D4FE02C0689437
:1005F000D2F820E130E00DC06894D4F8F6CF54FE74
:1006000003C0E92FE660DE2E20E132E002C028E0E0
:1006100030E0F801D7FE0DC0619171918191919107
:100620008F01A5010E949603C82ECA18E894D7F836
:1006300056CF6191719190E080E0F2CF52FC02C000
:10064000839469CF8394839466CF852D867809F44B
:1006500062CFF6CFB70180E290E00E9466038394F8
:100660008414C0F3312C64CF342C3818841408F46B
:100670005FCFF8CF852D867809F46CCF8BE251FEE1
:1006800080E257FC8DE2B70190E062CFB70180E3D2
:1006900090E00E9466039A945DCF8FEF9FEF88CF22
:1006A000FC010590615070400110D8F7809590953D
:1006B0008E0F9F1F0895FC01615070400190011042
:1006C000D8F7809590958E0F9F1F08950F931F93D5
:1006D000CF93DF93182F092FEB018B8181FD09C088
:1006E0001FEF0FEF812F902FDF91CF911F910F916F
:1006F000089582FF14C02E813F818C819D8128172F
:1007000039073CF4E881F981CF0101969983888308
:1007100010838E819F8101969F838E83E3CFE8852E
:10072000F985812F1995892BA1F3DACFFA01AA2730
:10073000283051F1203181F1E8946F936E7F6E5F24
:100740007F4F8F4F9F4FAF4FB1E03ED0B4E03CD0D2
:10075000670F781F891F9A1FA11D680F791F8A1FB5
:10076000911DA11D6A0F711D811D911DA11D20D01C
:1007700009F468943F912AE0269F11243019305DD6
:100780003193DEF6CF010895462F4770405D4193C7
:10079000B3E00FD0C9F7F6CF462F4F70405D4A3314
:1007A00018F0495D31FD4052419302D0A9F7EACFDC
:1007B000B4E0A6959795879577956795BA95C9F70B
:1007C00000976105710508959B01AC010A2E0694FE
:1007D0005795479537952795BA95C9F7620F731FB7
:0C07E000841F951FA01D0895F894FFCF02
:1007EC0025640050313D00202D232D200050323D3A
:0207FC000000FB
:00000001FF
