:100000000C948C000C94AD000C94AD000C94AD00DD
:100010000C94AD000C94AD000C94AD000C94AD00AC
:100020000C94AD000C94AD000C94AD000C94AD009C
:100030000C94AD000C94AD000C94AD000C94AD008C
:100040000C94AD000C94AD000C94AD000C94AD007C
:100050000C94AD000C94AD000C94AD000C94AD006C
:100060000C94AD000C94AD000C94AD000C94AD005C
:100070000C94AD000C94AD000C94AD000C94AD004C
:100080000C94AD000C94AD000C94AD000C94AD003C
:100090000C94AD000C94AD000C94AD000C94AD002C
:1000A0000C94AD000C94AD000C94AD000C94AD001C
:1000B0000C94AD000C94AD000C94AD000C94AD000C
:1000C0000C94AD000C94AD000C94AD000C94AD00FC
:1000D0000C94AD000C94AD000C94AD000C94AD00EC
:1000E0000C94AD000C9431020C94FF010C946A0244
:1000F0000C94FC010C940D020C9475020C942502D6
:100100000C943D020C9454020C9449020C9480020D
:100110000C9419020C945F0211241FBECFEFD1E2A0
:10012000DEBFCDBF00E00CBF12E0A0E0B2E0EAEE1F
:10013000FBE000E00BBF02C007900D92AC30B107AE
:10014000D9F722E0ACE0B2E001C01D92A433B207BF
:10015000E1F70E940C030C94E6050C940000109249
:10016000C50087E68093C40088E18093C10086E0E3
:100170008093C20008958091C00087FFFCCF8091DA
:10018000C60008959091C00095FFFCCF8093C600F3
:100190000895CF93DF93EC018991811103C0DF9122
:1001A000CF9108950E94C200F7CF0F931F93CF9372
:1001B000DF93CDB7DEB764970FB6F894DEBF0FBEFE
:1001C000CDBF9F938F9388E092E09F938F938E0192
:1001D0000F5F1F4F1F930F930E941F03C8010E94C0
:1001E000C9000F900F900F900F900F900F90649692
:1001F0000FB6F894DEBF0FBECDBFDF91CF911F9138
:100200000F910895EF92FF920F931F93CF93DF9377
:100210008C01EB017A012FE132E050E040E070E028
:1002200060E080E00E94E00280911F029091200235
:1002300020910402309105028217930720F49093D5
:1002400005028093040220911002309111022817B8
:10025000390720F4909311028093100280910402D8
:10026000909105022091100230911102820F931F8C
:100270009C013695279530932C0220932B02F70191
:1002800031832083892F8695F801808380912B020A
:100290008883DF91CF911F910F91FF90EF90089588
:1002A000EF92FF920F931F93CF93DF938C01EB019B
:1002B0007A012DE132E050E040E070E060E081E062
:1002C0000E94E00280911D0290911E022091020284
:1002D000309103028217930720F4909303028093D6
:1002E000020220910E0230910F022817390720F4E4
:1002F00090930F0280930E0280910202909103026C
:1003000020910E0230910F02820F931F9C013695AF
:10031000279530932E0220932D02F70131832083FD
:10032000892F8695F801808380912D028883DF9143
:10033000CF911F910F91FF90EF900895EF92FF9250
:100340000F931F93CF93DF938C01EB017A012BE185
:1003500032E050E040E070E060E082E00E94E002C5
:1003600080911B0290911C022091000230910102A9
:100370008217930720F4909301028093000220914A
:100380000C0230910D022817390720F490930D02CA
:1003900080930C02809100029091010220910C0246
:1003A00030910D02820F931F9C0136952795309353
:1003B000290220932802F70131832083892F869513
:1003C000F8018083809128028883DF91CF911F916B
:1003D0000F91FF90EF900895809107020E94900284
:1003E000809306028D30C0F4E82FF0E08827E851B2
:1003F000FA4F8F4F0C94170310920702089530E0C4
:1004000020E045E252E070E060E080E00E94E0021F
:100410008091250280930702089530E020E050E0AB
:1004200040E066E272E080E00E94E00280912602F5
:10043000F1CF30E020E043E252E070E060E081E0A4
:100440000E94E00280912302E5CF30E020E050E0FE
:1004500040E064E272E081E00E94E00280912402C8
:10046000D9CF30E020E041E252E070E060E082E08D
:100470000E94E00280912102CDCF30E020E050E0E8
:1004800040E062E272E082E00E94E002809122029B
:10049000C1CF50E040E069E172E090E080E00E946E
:1004A000020180911902B6CF50E040E070E060E0B8
:1004B0008AE192E00E94020180911A02ABCF50E0E3
:1004C00040E066E172E090E080E00E94500180919F
:1004D0001602A0CF50E040E070E060E087E192E0DB
:1004E0000E9450018091170295CF50E040E063E1F7
:1004F00072E090E080E00E949E01809113028ACF1A
:1005000050E040E070E060E084E192E00E949E01F3
:10051000809114027FCF88E084B980E48CBD089577
:100520008EBD0DB407FEFDCF8EB50895CF93DF933A
:10053000EC018991811103C0DF91CF9108950E9450
:100540009002F7CF0F931F93CF93DF93CDB7DEB712
:10055000C456D1090FB6F894DEBF0FBECDBF9F932E
:100560008F9388E092E09F938F938E010F5F1F4FD0
:100570001F930F930E941F03C8010E9496028EB51D
:100580000F900F900F900F900F900F90CC59DF4F5E
:100590000FB6F894DEBF0FBECDBFDF91CF911F9194
:1005A0000F910895EAE7F0E0808186608083ACE7F0
:1005B000B0E08C9180648C93808180688083089502
:1005C00090917C00907E90937C0090917C00892B90
:1005D00080937C0080917A00806480937A0080917F
:1005E0007A0084FFFCCF80917A00806180937A004A
:1005F0008091780080932A0290917900909327024D
:10060000FA01808390912702FB01908380912A0256
:10061000F9019183808308950E94D2020E948B0287
:100620000E94AF008FEF81B90E94EC01FDCFEE0F69
:10063000FF1F881F8BBF0790F691E02D19940F9331
:100640001F93CF93DF93CDB7DEB72E970FB6F894F5
:10065000DEBF0FBECDBF0E891F8986E08C831A8353
:1006600009838FEF9FE79E838D83AE01465E5F4FC8
:10067000688D798DCE0101960E944F032F813885B8
:10068000020F131FF80110822E960FB6F894DEBFEA
:100690000FBECDBFDF91CF911F910F9108952F9283
:1006A0003F924F925F926F927F928F929F92AF9202
:1006B000BF92CF92DF92EF92FF920F931F93CF934F
:1006C000DF9300D000D000D00F920F92CDB7DEB7ED
:1006D0007C013B018A01FC0117821682838181FF24
:1006E000CEC19AE0292ECE0101965C01F7019381DB
:1006F000F30193FD859193FF81913F01882309F4D4
:1007000046C1853239F493FD859193FF81913F0174
:10071000853229F4B70190E00E945805E7CF912C6B
:10072000412C512CFFE1F51538F08B3209F188F49A
:10073000803201F1833221F157FC3AC020ED280FBD
:100740002A3040F556FE1FC0929C200D1124922E97
:1007500006C08D3291F0803379F7689450F8F30138
:1007600093FD859193FF81913F018111DBCF20C0E3
:10077000689451F8689452F8F2CF689453F8EFCF28
:10078000689454F8ECCF429C200D1124422E6894BA
:1007900055F8E5CF8E3229F456FCF9C0689456F826
:1007A000DECF8C3619F4689457F8D9CF8836B9F271
:1007B000982F9F7D95549330C0F08336A1F18337F5
:1007C000C1F1833509F05BC0F801C190D1908F0170
:1007D000692D70E056FC02C06FEF7FEFC6010E94EA
:1007E00042054C01689457F80AC00C5F1F4F2FE375
:1007F000298388248394912C6501E89457F853FC4D
:1008000004C04814190409F018F5342C811491041B
:1008100031F5332009F46ACFB70180E290E00E94FD
:1008200058053A94F6CFF801808189830E5F1F4FF7
:10083000E0CFF801C190D1908F01692D70E056FC96
:1008400002C06FEF7FEFC6010E944D054C01D5CF6E
:10085000B70180E290E00E9458054A94D2CFF60199
:1008600057FC859157FE81916F01B70190E00E947E
:10087000580531103A94F1E08F1A9108C7CF8436A9
:1008800019F0893609F074C0F80157FE6AC0619109
:100890007191819191918F01252D2F76D22E97FF05
:1008A00009C090958095709561957F4F8F4F9F4FB0
:1008B0006894D7F82AE030E0A5010E948805C82E88
:1008C000CA188C2C5D2CD6FE0CC0E89450F8C914C4
:1008D00040F4D4FE05C0D2FC03C0FD2DFE7E5F2E89
:1008E000892C54FEA4C0FE01EC0DF11D80818033E3
:1008F00009F096C0252D297E522E852D8870382E20
:1009000053FCA4C050FE9EC09C2C841418F44C0CC4
:10091000942C981854FEA0C0B70180E390E00E9488
:10092000580552FE09C088E790E051FE02C088E5F4
:1009300090E0B7010E945805C91408F499C0CA9400
:10094000D12C9FEFC91AD90ACA0CDB1CF60182917F
:100950006F01B70190E00E945805AC14BD04B1F7D7
:1009600058CF61917191072E000C880B990B93CF92
:10097000D52CE894D4F82AE030E08537E1F1952DC4
:10098000997FD92E8F36A9F1F0F4883551F1F7010E
:10099000868197812B960FB6F894DEBF0FBECDBF30
:1009A000DF91CF911F910F91FF90EF90DF90CF904B
:1009B000BF90AF909F908F907F906F905F904F907F
:1009C0003F902F900895803749F0883701F7D4FE83
:1009D00002C06894D2F820E130E00DC06894D4F8E9
:1009E000F6CF54FE03C0E92FE660DE2E20E132E0B0
:1009F00002C028E030E0F801D7FE0DC0619171918E
:100A0000819191918F01A5010E948805C82ECA1875
:100A1000E894D7F856CF6191719190E080E0F2CFE1
:100A200052FC02C0839469CF8394839466CF852D52
:100A3000867809F462CFF6CFB70180E290E00E9499
:100A4000580583948414C0F3312C64CF342C3818A7
:100A5000841408F45FCFF8CF852D867809F46CCF25
:100A60008BE251FE80E257FC8DE2B70190E062CF4D
:100A7000B70180E390E00E9458059A945DCF8FEF14
:100A80009FEF88CFFC010590615070400110D8F7AE
:100A9000809590958E0F9F1F0895FC0161507040C6
:100AA00001900110D8F7809590958E0F9F1F0895A3
:100AB0000F931F93CF93DF93182F092FEB018B8197
:100AC00081FD09C01FEF0FEF812F902FDF91CF9194
:100AD0001F910F91089582FF14C02E813F818C8158
:100AE0009D81281739073CF4E881F981CF010196EF
:100AF0009983888310838E819F8101969F838E8343
:100B0000E3CFE885F985812F1995892BA1F3DACFF9
:100B1000FA01AA27283051F1203181F1E8946F932E
:100B20006E7F6E5F7F4F8F4F9F4FAF4FB1E03ED0D4
:100B3000B4E03CD0670F781F891F9A1FA11D680F72
:100B4000791F8A1F911DA11D6A0F711D811D911DA5
:100B5000A11D20D009F468943F912AE0269F11241A
:100B60003019305D3193DEF6CF010895462F47707E
:100B7000405D4193B3E00FD0C9F7F6CF462F4F70D9
:100B8000405D4A3318F0495D31FD4052419302D037
:100B9000A9F7EACFB4E0A6959795879577956795DD
:100BA000BA95C9F700976105710508959B01AC01DD
:100BB0000A2E06945795479537952795BA95C9F704
:100BC000620F731F841F951FA01D0895F894FFCF17
:100BD000FC01FF010D021902250231023D0249020A
:0A0BE00054025F026A0275028002EF
:0C0BEA00FF03FF03FF03304225640000FE
:00000001FF
