:100000000C9472000C947E000C947E000C947E0084
:100010000C947E000C947E000C947E000C947E0068
:100020000C947E000C947E000C947E000C947E0058
:100030000C947E000C947E000C947E000C947E0048
:100040000C947E000C947E000C947E000C947E0038
:100050000C947E000C947E000C947E000C947E0028
:100060000C947E000C947E000C947E000C947E0018
:100070000C947E000C947E000C947E000C947E0008
:100080000C947E000C947E000C947E000C947E00F8
:100090000C947E000C947E000C947E000C947E00E8
:1000A0000C947E000C947E000C947E000C947E00D8
:1000B0000C947E000C947E000C947E000C947E00C8
:1000C0000C947E000C947E000C947E000C947E00B8
:1000D0000C947E000C947E000C947E000C947E00A8
:1000E0000C947E0011241FBECFEFD1E2DEBFCDBF46
:1000F00000E00CBF0E94BF000C94E9000C940000CB
:1001000088E084B92A9A80E48CBD08958EBD0DB430
:1001100007FEFDCF8EB508950C94860083B185FB54
:10012000882780F991E089271C9B826090910001CB
:1001300096FF84609091000195FF886008950E9469
:100140008E00863091F00E948E00873081F00E94F0
:100150008E008F3071F00E948E008E3061F00E9410
:100160008E00873051F482E5089589E4089584E58E
:1001700008958BE208958CE4089580E008958FEF50
:1001800081B984B18F7C84B9809101018F7980938A
:10019000010185B1806385B98091020180668093F9
:1001A00002010E94800081E00E9486008F3039F4B5
:1001B0000E948E000E948600809582B9F4CF81E073
:1001C0000E948600803F79F70E949F000E9486006F
:0601D000EACFF894FFCF16
:00000001FF
